{
	"_format": "hh-sol-artifact-1",
	"contractName": "Transactions",
	"sourceName": "contracts/Transactions.sol",
	"abi": [
		{
			"anonymous": false,
			"inputs": [
				{
					"indexed": false,
					"internalType": "address",
					"name": "from",
					"type": "address"
				},
				{
					"indexed": false,
					"internalType": "address",
					"name": "receiver",
					"type": "address"
				},
				{
					"indexed": false,
					"internalType": "uint256",
					"name": "amount",
					"type": "uint256"
				},
				{
					"indexed": false,
					"internalType": "string",
					"name": "message",
					"type": "string"
				},
				{
					"indexed": false,
					"internalType": "uint256",
					"name": "timestamp",
					"type": "uint256"
				},
				{
					"indexed": false,
					"internalType": "string",
					"name": "keyword",
					"type": "string"
				}
			],
			"name": "Transfer",
			"type": "event"
		},
		{
			"inputs": [
				{
					"internalType": "address payable",
					"name": "reciever",
					"type": "address"
				},
				{
					"internalType": "uint256",
					"name": "amount",
					"type": "uint256"
				},
				{
					"internalType": "string",
					"name": "message",
					"type": "string"
				},
				{
					"internalType": "string",
					"name": "keyword",
					"type": "string"
				}
			],
			"name": "add",
			"outputs": [],
			"stateMutability": "nonpayable",
			"type": "function"
		},
		{
			"inputs": [],
			"name": "getAllTransaction",
			"outputs": [
				{
					"components": [
						{
							"internalType": "address",
							"name": "sender",
							"type": "address"
						},
						{
							"internalType": "address",
							"name": "receiver",
							"type": "address"
						},
						{
							"internalType": "uint256",
							"name": "amount",
							"type": "uint256"
						},
						{
							"internalType": "string",
							"name": "message",
							"type": "string"
						},
						{
							"internalType": "uint256",
							"name": "timestamp",
							"type": "uint256"
						},
						{
							"internalType": "string",
							"name": "keyword",
							"type": "string"
						}
					],
					"internalType": "struct Transactions.TransferStruct[]",
					"name": "",
					"type": "tuple[]"
				}
			],
			"stateMutability": "view",
			"type": "function"
		},
		{
			"inputs": [],
			"name": "getTransactionCount",
			"outputs": [
				{
					"internalType": "uint256",
					"name": "",
					"type": "uint256"
				}
			],
			"stateMutability": "view",
			"type": "function"
		}
	],
	"bytecode": "0x608060405234801561001057600080fd5b50610c17806100206000396000f3fe608060405234801561001057600080fd5b50600436106100415760003560e01c80632e7700f0146100465780635f89d38314610064578063add6415d14610080575b600080fd5b61004e61009e565b60405161005b91906108e5565b60405180910390f35b61007e600480360381019061007991906105eb565b6100a7565b005b610088610258565b60405161009591906108c3565b60405180910390f35b60008054905090565b6100af61049b565b60016040518060c001604052803373ffffffffffffffffffffffffffffffffffffffff1681526020018673ffffffffffffffffffffffffffffffffffffffff16815260200185815260200184815260200142815260200183815250908060018154018082558091505060019003906000526020600020906006020160009091909190915060008201518160000160006101000a81548173ffffffffffffffffffffffffffffffffffffffff021916908373ffffffffffffffffffffffffffffffffffffffff16021790555060208201518160010160006101000a81548173ffffffffffffffffffffffffffffffffffffffff021916908373ffffffffffffffffffffffffffffffffffffffff1602179055506040820151816002015560608201518160030190805190602001906101e79291906104b6565b506080820151816004015560a082015181600501908051906020019061020e9291906104b6565b5050507f416cfa4330a4565f45c2fd2dd4826a83a37443aba2ce6f79477c7355afac35fa33858585428660405161024a96959493929190610854565b60405180910390a150505050565b60606001805480602002602001604051908101604052809291908181526020016000905b8282101561049257838290600052602060002090600602016040518060c00160405290816000820160009054906101000a900473ffffffffffffffffffffffffffffffffffffffff1673ffffffffffffffffffffffffffffffffffffffff1673ffffffffffffffffffffffffffffffffffffffff1681526020016001820160009054906101000a900473ffffffffffffffffffffffffffffffffffffffff1673ffffffffffffffffffffffffffffffffffffffff1673ffffffffffffffffffffffffffffffffffffffff1681526020016002820154815260200160038201805461036590610ae3565b80601f016020809104026020016040519081016040528092919081815260200182805461039190610ae3565b80156103de5780601f106103b3576101008083540402835291602001916103de565b820191906000526020600020905b8154815290600101906020018083116103c157829003601f168201915b505050505081526020016004820154815260200160058201805461040190610ae3565b80601f016020809104026020016040519081016040528092919081815260200182805461042d90610ae3565b801561047a5780601f1061044f5761010080835404028352916020019161047a565b820191906000526020600020905b81548152906001019060200180831161045d57829003601f168201915b5050505050815250508152602001906001019061027c565b50505050905090565b60016000808282546104ad91906109c7565b92505081905550565b8280546104c290610ae3565b90600052602060002090601f0160209004810192826104e4576000855561052b565b82601f106104fd57805160ff191683800117855561052b565b8280016001018555821561052b579182015b8281111561052a57825182559160200191906001019061050f565b5b509050610538919061053c565b5090565b5b8082111561055557600081600090555060010161053d565b5090565b600061056c61056784610931565b610900565b90508281526020810184848401111561058457600080fd5b61058f848285610aa1565b509392505050565b6000813590506105a681610bb3565b92915050565b600082601f8301126105bd57600080fd5b81356105cd848260208601610559565b91505092915050565b6000813590506105e581610bca565b92915050565b6000806000806080858703121561060157600080fd5b600061060f87828801610597565b9450506020610620878288016105d6565b935050604085013567ffffffffffffffff81111561063d57600080fd5b610649878288016105ac565b925050606085013567ffffffffffffffff81111561066657600080fd5b610672878288016105ac565b91505092959194509250565b600061068a83836107a6565b905092915050565b61069b81610a6b565b82525050565b6106aa81610a1d565b82525050565b6106b981610a1d565b82525050565b60006106ca82610971565b6106d48185610994565b9350836020820285016106e685610961565b8060005b858110156107225784840389528151610703858261067e565b945061070e83610987565b925060208a019950506001810190506106ea565b50829750879550505050505092915050565b600061073f8261097c565b61074981856109a5565b9350610759818560208601610ab0565b61076281610ba2565b840191505092915050565b60006107788261097c565b61078281856109b6565b9350610792818560208601610ab0565b61079b81610ba2565b840191505092915050565b600060c0830160008301516107be60008601826106a1565b5060208301516107d160208601826106a1565b5060408301516107e46040860182610836565b50606083015184820360608601526107fc8282610734565b91505060808301516108116080860182610836565b5060a083015184820360a08601526108298282610734565b9150508091505092915050565b61083f81610a61565b82525050565b61084e81610a61565b82525050565b600060c08201905061086960008301896106b0565b6108766020830188610692565b6108836040830187610845565b8181036060830152610895818661076d565b90506108a46080830185610845565b81810360a08301526108b6818461076d565b9050979650505050505050565b600060208201905081810360008301526108dd81846106bf565b905092915050565b60006020820190506108fa6000830184610845565b92915050565b6000604051905081810181811067ffffffffffffffff8211171561092757610926610b73565b5b8060405250919050565b600067ffffffffffffffff82111561094c5761094b610b73565b5b601f19601f8301169050602081019050919050565b6000819050602082019050919050565b600081519050919050565b600081519050919050565b6000602082019050919050565b600082825260208201905092915050565b600082825260208201905092915050565b600082825260208201905092915050565b60006109d282610a61565b91506109dd83610a61565b9250827fffffffffffffffffffffffffffffffffffffffffffffffffffffffffffffffff03821115610a1257610a11610b15565b5b828201905092915050565b6000610a2882610a41565b9050919050565b6000610a3a82610a41565b9050919050565b600073ffffffffffffffffffffffffffffffffffffffff82169050919050565b6000819050919050565b6000610a7682610a7d565b9050919050565b6000610a8882610a8f565b9050919050565b6000610a9a82610a41565b9050919050565b82818337600083830152505050565b60005b83811015610ace578082015181840152602081019050610ab3565b83811115610add576000848401525b50505050565b60006002820490506001821680610afb57607f821691505b60208210811415610b0f57610b0e610b44565b5b50919050565b7f4e487b7100000000000000000000000000000000000000000000000000000000600052601160045260246000fd5b7f4e487b7100000000000000000000000000000000000000000000000000000000600052602260045260246000fd5b7f4e487b7100000000000000000000000000000000000000000000000000000000600052604160045260246000fd5b6000601f19601f8301169050919050565b610bbc81610a2f565b8114610bc757600080fd5b50565b610bd381610a61565b8114610bde57600080fd5b5056fea2646970667358221220f83a70cfb2fa0f2ca0c2b4474f3018541e462b65b8bfdabbf127c46d69cd76e664736f6c63430008000033",
	"linkReferences": {},
	"deployedLinkReferences": {}
}